:10000000259A6F937F938F93AF939F93BF9390E0C5
:1000100061E0ECE8F0E0E90F08F4F3957491E6EAAA
:10002000F0E0E90F08F4F39584916817E1F0A1E09E
:10003000A723A13061F02D9AB1E00E9460002D98B5
:1000400076958695B1E00E9460000C9415002D9A7B
:10005000B3E00E9460002D9876958695B1E00E94ED
:1000600060000C941500B7E00E94600093959A31EF
:1000700011F00C940900BF919F91AF918F917F91E6
:100080006F91B5E00E9460000E940100020105012D
:1000900000040300000E0502030107060B02000125
:1000A000040806090D0304101008021008100410BB
:1000B0000810040408101008080208100810101096
:1000C000BF931F932F921F9218E0112422242A9489
:1000D000F1F71A94D9F71A95C1F7BA95A9F71F90B5
:0800E0002F901F91BF910895BC
:00000001FF
