:100000001CC0000000000000000000000000000014
:1000100000000000000000000000000000000000E0
:1000200000000000000000000C944E000C943C0006
:10003000000000000C941C00189508E00EBF0FEFA4
:100040000DBF00E00093C1000C94260097E30EEF73
:100050000AB9289A00270093800003E200936F00FA
:1000600000E3009389000027009388000DE80093C7
:10007000810033277894FFCF0F930FB70F93009130
:10008000810006FF02C03FEF05C036D0092F0BB933
:10009000882777270F910FBF0F9118958F928FB6F2
:1000A0008F9280908600809087001F93132F1829CD
:1000B00079F011271093850010938400109181002E
:1000C00016FF03C00AD01F7B01C01064109381008B
:1000D0001F918F908FBE8F9018950F93332319F433
:1000E0000CE0801620F07395880F839502C07395FD
:1000F000880F0F91332708957F3F59F0713059F0E1
:10010000723081F07330E1F0743099F175500AF477
:1001100016C097E314C097E0803089F097E88130EB
:1001200071F0F7CF99E0813051F09FEC803039F0D9
:100130009BE9833021F099E4823009F0EACF0895F9
:1001400091EA8430E1F393E08630C9F399E8853091
:10015000B1F391E4873099F39FE4823081F393E126
:10016000803069F393EE813051F39DEA833039F3A7
:10017000D0CF91E0883019F397E48A3001F39FE003
:100180008230E9F29BE88030D1F291EF8730B9F20A
:1001900097EC8430A1F29DE0863089F299E18D30B0
:1001A00071F291EC813059F299E8893041F291E98C
:0C01B0008B3029F29FEC8C3011F2ABCFA9
:00000001FF
