:100000001CC0000000000000000000000000000014
:1000100000000000000000000000000000000000E0
:1000200000000000000000000C9481000C944000CF
:10003000000000000C941C00189508E00EBF0FEFA4
:100040000DBF00E00093C1000C9426000EEF0AB92A
:100050008FEF8BB9289A80E091E0F0E009E10093FE
:10006000890000270093880000270093800002E2A7
:1000700000936F000DE80093810033277894FFCF41
:100080000F930FB70F930091810006FF02C03FEF5F
:1000900008C001E005B90E9455008BB980E091E0ED
:1000A000F0E00F910FBF0F911895EF93FF93892BFD
:1000B000F130F9F0913009F18032DCF4E2EDF0E05A
:1000C0000C946200E80F08F4F3958491FF91EF918E
:1000D0000895F7F70787FBAB092B13A1AF43C10BBB
:1000E00095A38B83C7250F470DF7E389F719F79180
:1000F000F1F787EFFF91EF9108958FEFFF91EF9167
:1001000008958F928FB68F9280908600809087009E
:100110001F93132F182989F011271093850010932E
:1001200084001091810016FF03C00CD01F7B03C018
:100130001064AFEFABB9109381001F918F908FBE09
:100140008F9018950F93332319F40CE0801618F054
:1001500001E0892B01C001E005B9903809F4F1E014
:08016000990F0F913327089558
:00000001FF
